H202404260000000000000003V0007       
I19000101O00000000000000002000000166386634            854237431930000076343324802    506660  5dddddknxbxn6222   D4814200 45000    MN00000000000013000949000000000000130009490000000000000000000000000072800000F       OSMANIYE     S/SIBANET BILISIM        00000000068024920230711101914                                                  
I19000101O00000000000000002000000166386634            854237431930000076343324802    506660  5dddddknxbxn6222   D4814200 45000    MN00000000000013000949000000000000130009490000000000000000000000000072800000F       OSMANIYE     S/SIBANET BILISIM        00000000068024920230711101914                                                  
I20240316I40000013829642602000000211147724407215404345855555540730721540434510000    964260  5dddddmhrwwq2165   C5992200 20500     N000000000000200009490000000000002000094900000000000000000000000003160000007 404345ISTANBUL     ONTEST SIM ISYERI        ISYERI00000000120240313152824                                                  
I20240316I40000013829650072000000211147940407216404347855555540730721640434700000    965007  5dddddmhrwwq2165   C5992200 20500     N000000000000100009490000000000001000094900000000000000000000000001580000007 404347ISTANBUL     ONTEST SIM ISYERI        ISYERI00000000120240313162108                                                  
I20240316I40000045526541783000003546100518407520239385855038340761096399820500000    654178  5dddddbsalog3335   C5172200 20500     X000000000002026889490000000000020268894900000000000000000000000068103170000 239385ISTANBUL     PARAM ./TTS..            00000000109639920240315205241                                                  
I20240316I40000045510705343000003546166297407517418921855442240750384143745950000    070534  5dddddudubdb9707   C5411200 20500     X000000000000469609490000000000004696094900000000000000000000000015778560000 936015ISTANBUL     PARAM.      /TRENDYOL    18016964430000020240315174819                                                  
I20240316I40000045492878043000003546171304407514644789855442240750384028516040000    287804  5dddddemykna2844   C5411200 20500     X000000000000224589490000000000002245894900000000000000000000000007545890000 084955ISTANBUL     PARAM.      /TRENDYOL    18016964430000020240315145108                                                  
I20240316I40000045536650623000003549273041407543366645854377140770764458866980000    665062  5dddddllcqtd6843   C5411200 20500     X00000000000100877949000000000001008779490000000000000000000000003389467000F 588669ISTANBUL     FILE WEB POS*1 * ISTANB  669349326      20240315094321                                                  
I19000101O40000013251835632000000166386596328116352502867054432902811635250294812    183563  5dddddmhrwwq2165   C4829200 45018    MN00000000000150000949000000000001500009490000000000000000000000002370000000F 000000ISTANBUL     ONTEST SIM ISYERI        ISYERI00000000120231009000000                                                  
F202404260000000009
